:020000040800F2
:1000000000500020255000084D2100085321000811
:10001000592100085F210008652100080000000048
:100020000000000000000000000000006B2100083C
:100030007721000800000000832100088F210008BC
:100040006D5000086D5000086D5000086D5000089C
:100050006D5000086D5000086D5000086D5000088C
:100060006D5000086D5000086D5000086D5000087C
:100070006D5000086D5000086D5000086D5000086C
:100080006D5000086D5000086D5000086D5000085C
:100090006D5000086D5000086D5000086D5000084C
:1000A0006D5000086D5000086D5000086D5000083C
:1000B0006D5000086D5000086D5000086D5000082C
:1000C0006D5000086D5000086D5000086D5000081C
:1000D0006D5000086D5000086D5000086D5000080C
:1000E0006D5000086D5000086D50000800000000C1
:1000F0000000000000000000000000000000000000
:0C01000000000000000000005FF808F1A3
:1001100010B5054C237833B9044B13B10448AFF341
:1001200000800123237010BD800600200000000025
:10013000C47E000808B5034B1BB103490348AFF365
:10014000008008BD0000000084060020C47E000876
:10015000034613F8012B002AFBD1181A0138704707
:1001600081F0004102E000BF83F0004330B54FEA68
:1001700041044FEA430594EA050F08BF90EA020FD5
:100180001FBF54EA000C55EA020C7FEA645C7FEA68
:10019000655C00F0E2804FEA5454D4EB5555B8BF8B
:1001A0006D420CDD2C4480EA020281EA030382EAFC
:1001B000000083EA010180EA020281EA0303362D8E
:1001C00088BF30BD11F0004F4FEA01314FF4801C61
:1001D0004CEA113102D0404261EB410113F0004F73
:1001E0004FEA03334CEA133302D0524263EB43032A
:1001F00094EA050F00F0A780A4F10104D5F1200EC8
:100200000DDB02FA0EFC22FA05F2801841F1000122
:1002100003FA0EF2801843FA05F359410EE0A5F1F6
:1002200020050EF1200E012A03FA0EFC28BF4CF027
:10023000020C43FA05F3C01851EBE37101F00045DD
:1002400007D54FF0000EDCF1000C7EEB00006EEBEA
:100250000101B1F5801F1BD3B1F5001F0CD3490874
:100260005FEA30004FEA3C0C04F101044FEA4452CB
:1002700012F5800F80F09A80BCF1004F08BF5FEA52
:10028000500C50F1000041EB045141EA050130BD32
:100290005FEA4C0C404141EB010111F4801FA4F1D5
:1002A0000104E9D191F0000F04BF01460020B1FA2A
:1002B00081F308BF2033A3F10B03B3F120020CDA62
:1002C0000C3208DD02F1140CC2F10C0201FA0CF040
:1002D00021FA02F10CE002F11402D8BFC2F1200CA5
:1002E00001FA02F120FA0CFCDCBF41EA0C0190405B
:1002F000E41AA2BF01EB0451294330BD6FEA0404A4
:100300001F3C1CDA0C340EDC04F11404C4F120028E
:1003100020FA04F001FA02F340EA030021FA04F3A0
:1003200045EA030130BDC4F10C04C4F1200220FAF7
:1003300002F001FA04F340EA0300294630BD21FA35
:1003400004F0294630BD94F0000F83F4801306BFFB
:1003500081F480110134013D4EE77FEA645C18BFEF
:100360007FEA655C29D094EA050F08BF90EA020F86
:1003700005D054EA000C04BF1946104630BD91EA7E
:10038000030F1EBF0021002030BD5FEA545C05D181
:100390004000494128BF41F0004130BD14F58004C0
:1003A0003CBF01F5801130BD01F0004545F0FE4134
:1003B00041F470014FF0000030BD7FEA645C1ABF69
:1003C000194610467FEA655C1CBF0B46024650EAA0
:1003D000013406BF52EA033591EA030F41F40021CC
:1003E00030BD00BF90F0000F04BF0021704730B552
:1003F0004FF4806404F132044FF000054FF0000127
:1004000050E700BF90F0000F04BF0021704730B5E7
:100410004FF4806404F1320410F0004548BF4042BC
:100420004FF000013EE700BF42004FEAE2014FEA11
:1004300031014FEA02701FBF12F07F4393F07F4FEC
:1004400081F06051704792F0000F14BF93F07F4F1E
:10045000704730B54FF4607401F0004521F0004161
:1004600020E700BF50EA010208BF704730B54FF0E7
:1004700000050AE050EA010208BF704730B511F0EC
:10048000004502D5404261EB41014FF4806404F124
:1004900032045FEA915C3FF4DCAE4FF003025FEAA6
:1004A000DC0C18BF03325FEADC0C18BF033202EB2E
:1004B000DC02C2F1200300FA03FC20FA02F001FA88
:1004C00003FE40EA0E0021FA02F11444C1E600BF27
:1004D00070B54FF0FF0C4CF4E06C1CEA11541DBFDA
:1004E0001CEA135594EA0C0F95EA0C0F00F0DEF8A5
:1004F0002C4481EA030621EA4C5123EA4C5350EA8A
:10050000013518BF52EA033541F4801143F48013DA
:1005100038D0A0FB02CE4FF00005E1FB02E506F06B
:100520000042E0FB03E54FF00006E1FB03569CF0C0
:10053000000F18BF4EF0010EA4F1FF04B6F5007FC6
:1005400064F5407404D25FEA4E0E6D4146EB060638
:1005500042EAC62141EA55514FEAC52040EA5E50C1
:100560004FEACE2EB4F1FD0C88BFBCF5E06F1ED86B
:10057000BEF1004F08BF5FEA500E50F1000041EBA2
:10058000045170BD06F0004646EA010140EA02004F
:1005900081EA0301B4EB5C04C2BFD4EB0C0541EA71
:1005A000045170BD41F480114FF0000E013C00F386
:1005B000AB8014F1360FDEBF002001F0004170BDAA
:1005C000C4F10004203C35DA0C341BDC04F11404C3
:1005D000C4F1200500FA05F320FA04F001FA05F24F
:1005E00040EA020001F0004221F0004110EBD3701C
:1005F00021FA04F642EB06015EEA430E08BF20EA48
:10060000D37070BDC4F10C04C4F1200500FA04F3EA
:1006100020FA05F001FA04F240EA020001F000417C
:1006200010EBD37041F100015EEA430E08BF20EAEF
:10063000D37070BDC4F1200500FA05F24EEA020E37
:1006400020FA04F301FA05F243EA020321FA04F066
:1006500001F0004121FA04F220EA020000EBD3701D
:100660005EEA430E08BF20EAD37070BD94F0000F1D
:100670000FD101F00046400041EB010111F4801F51
:1006800008BF013CF7D041EA060195F0000F18BF02
:10069000704703F00046520043EB030313F4801F3E
:1006A00008BF013DF7D043EA0603704794EA0C0FF8
:1006B0000CEA135518BF95EA0C0F0CD050EA41060E
:1006C00018BF52EA4306D1D181EA030101F000418B
:1006D0004FF0000070BD50EA410606BF10461946B3
:1006E00052EA430619D094EA0C0F02D150EA0136BF
:1006F00013D195EA0C0F05D152EA03361CBF104600
:1007000019460AD181EA030101F0004141F0FE419E
:1007100041F470014FF0000070BD41F0FE4141F422
:10072000780170BD70B54FF0FF0C4CF4E06C1CEA22
:1007300011541DBF1CEA135594EA0C0F95EA0C0FD7
:1007400000F0A7F8A4EB050481EA030E52EA033592
:100750004FEA013100F088804FEA03334FF08055B3
:1007600045EA131343EA12634FEA022245EA1115E0
:1007700045EA10654FEA00260EF000419D4208BF91
:10078000964244F1FD0404F5407402D25B084FEA3E
:100790003202B61A65EB03055B084FEA32024FF4EA
:1007A00080104FF4002CB6EB020E75EB030E22BF47
:1007B000B61A754640EA0C005B084FEA3202B6EB07
:1007C000020E75EB030E22BFB61A754640EA5C00B6
:1007D0005B084FEA3202B6EB020E75EB030E22BF46
:1007E000B61A754640EA9C005B084FEA3202B6EB47
:1007F000020E75EB030E22BFB61A754640EADC0006
:1008000055EA060E18D04FEA051545EA16754FEA67
:1008100006164FEAC30343EA52734FEAC2025FEA85
:100820001C1CC0D111F4801F0BD141EA00014FF014
:1008300000004FF0004CB6E711F4801F04BF0143E5
:100840000020B4F1FD0C88BFBCF5E06F3FF6AFAE01
:10085000B5EB030C04BFB6EB020C5FEA500C50F191
:10086000000041EB045170BD0EF0004E4EEA113114
:1008700014EB5C04C2BFD4EB0C0541EA045170BD1B
:1008800041F480114FF0000E013C90E645EA060E5F
:100890008DE60CEA135594EA0C0F08BF95EA0C0F8D
:1008A0003FF43BAF94EA0C0F0AD150EA01347FF4D5
:1008B00034AF95EA0C0F7FF425AF104619462CE7AC
:1008C00095EA0C0F06D152EA03353FF4FDAE10460F
:1008D000194622E750EA410618BF52EA43067FF460
:1008E000C5AE50EA41047FF40DAF52EA43057FF4F0
:1008F000EBAE12E74FF0FF3C06E000BF4FF0010CFB
:1009000002E000BF4FF0010C4DF804CD4FEA410C5E
:100910007FEA6C5C4FEA430C18BF7FEA6C5C1BD02B
:1009200001B050EA410C0CBF52EA430C91EA030FAC
:1009300002BF90EA020F0020704710F1000F91EA09
:10094000030F58BF994208BF90422CBFD8176FEAD7
:10095000E37040F0010070474FEA410C7FEA6C5CA5
:1009600002D150EA013C07D14FEA430C7FEA6C5CAC
:10097000D6D152EA033CD3D05DF8040B704700BFD8
:100980008446104662468C461946634600E000BF26
:1009900001B5FFF7B7FF002848BF10F1000F01BDF8
:1009A0004DF808EDFFF7F4FF0CBF012000205DF8C3
:1009B00008FB00BF4DF808EDFFF7EAFF34BF012048
:1009C00000205DF808FB00BF4DF808EDFFF7E0FFE1
:1009D00094BF012000205DF808FB00BF4DF808ED32
:1009E000FFF7CEFF94BF012000205DF808FB00BF99
:1009F0004DF808EDFFF7C4FF34BF012000205DF87B
:100A000008FB00BF4FEA410C7FEA6C5C02D150EA60
:100A1000013C0AD14FEA430C7FEA6C5C02D152EAF6
:100A2000033C02D14FF0000070474FF001007047C7
:100A30004FEA410212F5001215D211D56FF4787306
:100A4000B3EB625212D94FEAC12343F0004343EAA9
:100A5000505311F0004F23FA02F018BF4042704784
:100A60004FF00000704750EA013005D111F000400E
:100A700008BF6FF0004070474FF00000704700BFA4
:100A80004A0011D212F5001211D20DD56FF478730D
:100A9000B3EB62520ED44FEAC12343F0004343EA62
:100AA000505323FA02F070474FF00000704750EAAD
:100AB000013002D14FF0FF3070474FF00000704717
:100AC00080F0004002E000BF81F0004142001FBF03
:100AD0005FEA410392EA030F7FEA226C7FEA236C0C
:100AE0006AD04FEA1262D2EB1363C1BFD218414001
:100AF00048404140B8BF5B42192B88BF704710F097
:100B0000004F40F4000020F07F4018BF404211F039
:100B1000004F41F4000121F07F4118BF494292EAA1
:100B2000030F3FD0A2F1010241FA03FC10EB0C00CD
:100B3000C3F1200301FA03F100F0004302D549425A
:100B400060EB4000B0F5000F13D3B0F1807F06D307
:100B500040084FEA310102F10102FE2A51D2B1F1FF
:100B6000004F40EBC25008BF20F0010040EA0300F4
:100B70007047490040EB000010F4000FA2F10102A1
:100B8000EDD1B0FA80FCACF1080CB2EB0C0200FA2B
:100B90000CF0AABF00EBC25052421843BCBFD04079
:100BA0001843704792F0000F81F4000106BF80F4F3
:100BB00000000132013BB5E74FEA41037FEA226CB6
:100BC00018BF7FEA236C21D092EA030F04D092F081
:100BD000000F08BF0846704790EA010F1CBF0020B5
:100BE000704712F07F4F04D1400028BF40F0004012
:100BF000704712F100723CBF00F50000704700F032
:100C0000004343F0FE4040F4000070477FEA226258
:100C100016BF08467FEA23630146420206BF5FEA29
:100C2000412390EA010F40F4800070474FF0000329
:100C300004E000BF10F0004348BF40425FEA000CF0
:100C400008BF704743F0964301464FF000001CE098
:100C500050EA010208BF70474FF000030AE000BFEE
:100C600050EA010208BF704711F0004302D540422C
:100C700061EB41015FEA010C02BF8446014600209E
:100C800043F0B64308BFA3F18053A3F50003BCFAB9
:100C90008CF2083AA3EBC25310DB01FA02FC634466
:100CA00000FA02FCC2F12002BCF1004F20FA02F26D
:100CB00043EB020008BF20F00100704702F1200260
:100CC00001FA02FCC2F1200250EA4C0021FA02F2C1
:100CD00043EB020008BF20EADC7070474FF0FF0CC6
:100CE0001CEAD0521EBF1CEAD15392EA0C0F93EAC1
:100CF0000C0F6FD01A4480EA010C400218BF5FEA63
:100D000041211ED04FF0006343EA501043EA5111D5
:100D1000A0FB01310CF00040B1F5000F3EBF4900CF
:100D200041EAD3715B0040EA010062F17F02FD2AD3
:100D30001DD8B3F1004F40EBC25008BF20F00100B6
:100D4000704790F0000F0CF0004C08BF49024CEACD
:100D5000502040EA51207F3AC2BFD2F1FF0340EA5F
:100D6000C250704740F400004FF00003013A5DDCD0
:100D700012F1190FDCBF00F000407047C2F1000211
:100D8000410021FA02F1C2F1200200FA02FC5FEAFE
:100D9000310040F1000053EA4C0308BF20EADC7048
:100DA000704792F0000F00F0004C02BF400010F4BA
:100DB000000F013AF9D040EA0C0093F0000F01F067
:100DC000004C02BF490011F4000F013BF9D041EA89
:100DD0000C018FE70CEAD15392EA0C0F18BF93EA8B
:100DE0000C0F0AD030F0004C18BF31F0004CD8D1B5
:100DF00080EA010000F00040704790F0000F17BF3C
:100E000090F0004F084691F0000F91F0004F14D081
:100E100092EA0C0F01D142020FD193EA0C0F03D1D9
:100E20004B0218BF084608D180EA010000F00040DC
:100E300040F0FE4040F40000704740F0FE4040F4B7
:100E4000400070474FF0FF0C1CEAD0521EBF1CEA56
:100E5000D15392EA0C0F93EA0C0F69D0A2EB030274
:100E600080EA010C49024FEA402037D04FF080530E
:100E700043EA111143EA10130CF000408B4238BFD3
:100E80005B0042F17D024FF4000C8B4224BF5B1AE1
:100E900040EA0C00B3EB510F24BFA3EB510340EA2F
:100EA0005C00B3EB910F24BFA3EB910340EA9C00DD
:100EB000B3EBD10F24BFA3EBD10340EADC001B014D
:100EC00018BF5FEA1C1CE0D1FD2A3FF650AF8B42F1
:100ED00040EBC25008BF20F0010070470CF0004CFE
:100EE0004CEA50207F32C2BFD2F1FF0340EAC25029
:100EF000704740F400004FF00003013A37E792F0EA
:100F0000000F00F0004C02BF400010F4000F013A47
:100F1000F9D040EA0C0093F0000F01F0004C02BF42
:100F2000490011F4000F013BF9D041EA0C0195E7AB
:100F30000CEAD15392EA0C0F08D142027FF47DAF44
:100F400093EA0C0F7FF470AF084676E793EA0C0F34
:100F500004D14B023FF44CAF08466EE730F0004C32
:100F600018BF31F0004CCAD130F000427FF45CAFC2
:100F700031F000437FF43CAF5FE700BF53B94AB99B
:100F8000002908BF00281CBF4FF0FF314FF0FF3091
:100F900000F07AB9ADF1080C6DE904CE00F006F866
:100FA000DDF804E0DDE9022304B070472DE9F047E5
:100FB0008C460E460446089D002B50D18A421746A7
:100FC0006CD9B2FA82FEBEF1000F0BD0CEF1200C2C
:100FD00001FA0EF620FA0CFC02FA0EF74CEA060CA7
:100FE00000FA0EF43A0CBCFBF2F9BBB202FB19CCCE
:100FF00009FB03FA4FEA144848EA0C46B2450AD9FD
:10100000F61909F1FF3180F02581B24540F22281C5
:10101000A9F102093E44A6EB0A06B6FBF2F002FB78
:10102000106600FB03F3A4B244EA0644A34209D9C4
:10103000E41900F1FF3280F00B81A34240F20881F5
:1010400002383C440021E41A40EA0940002D62D0F5
:10105000002324FA0EF42C606B60BDE8F0878B420D
:1010600007D9002D55D0002185E841000846BDE88C
:10107000F087B3FA83F1002940F08F80B34202D3A6
:10108000824200F2FC80841A66EB03060120B4461B
:10109000002D40D085E81010BDE8F08712B9012777
:1010A000B7FBF2F7B7FA87FEBEF1000F35D1012189
:1010B000F61B4FEA174C1FFA87F8B6FBFCF20CFB45
:1010C000126608FB02F0230C43EA0646B04207D939
:1010D000F61902F1FF3302D2B04200F2D2801A4672
:1010E000361AB6FBFCF00CFB106608FB00F8A3B246
:1010F00043EA0644A04507D9E41900F1FF3302D2C0
:10110000A04500F2B9801846A4EB080440EA02406A
:101110009CE729462846BDE8F08707FA0EF7CEF18E
:10112000200326FA03F24FEA174CB2FBFCF11FFA38
:1011300087F80CFB112206FA0EF620FA03F301FBE6
:1011400008F933431E0C46EA0246B14500FA0EF494
:1011500009D9F61901F1FF3280F08C80B14540F2D7
:10116000898002393E44A6EB0906B6FBFCF00CFB75
:10117000106200FB08F99EB246EA0246B14507D963
:10118000F61900F1FF3371D2B1456FD902383E44F0
:10119000A6EB090640EA01418FE7C1F1200722FAD8
:1011A00007F88B4048EA030326FA07F44FEA134E88
:1011B000B4FBFEF91FFA83FC0EFB19448E4020FAA3
:1011C00007F809FB0CFA48EA06084FEA184646EA0F
:1011D0000444A24502FA01F200FA01F608D9E41823
:1011E00009F1FF3044D2A24542D9A9F102091C44B9
:1011F000A4EB0A04B4FBFEF00EFB104400FB0CFC55
:101200001FFA88F848EA0444A44507D9E41800F115
:10121000FF3E29D2A44527D902381C4440EA0940A0
:10122000A0FB0289A4EB0C0CCC45C246CE4615D3DC
:1012300012D055B1B6EB0A036CEB0E0606FA07F7AF
:10124000CB401F43CE402F606E600021BDE8F08789
:101250001046F7E68946DEE64645EAD2B8EB020AD2
:1012600069EB030E0138E4E77046D7E718468FE7CD
:101270008146BDE7114676E702383C4444E708461C
:1012800006E7023A3E442BE7704700BF90B400AF38
:101290000F4A4FF000034FF0000482E818000D4A97
:1012A0004FF000034FF0000482E818000A4A4FF0A4
:1012B00000034FF0000482E81800084A4FF00003D2
:1012C0004FF0000482E8180000BFBD4690BC704794
:1012D00030070020E0060020100700200007002053
:1012E00090B585B000AFF860B9607A60F868FFF734
:1012F0009BF803460C460B4A82E81800B868FFF7D3
:1013000093F803460C46084A82E818007868FFF70D
:101310008BF803460C46054A82E8180000BF1437D4
:10132000BD4690BD080700202807002018070020B0
:1013300090B484B000AFC7E90201C7E900230C4AAA
:10134000D7E9023482E818000A4A97E8180082E8D0
:101350001800094AD7E9063482E81800074AD7E995
:10136000083482E8180000BF1037BD4690BC7047B3
:10137000D806002020070020F8060020E8060020FC
:1013800090B585B000AFC7E90201C7E90023D7E9EE
:101390000023D7E90201FEF7E7FE03460C465B4A4D
:1013A00082E818005A4BD3E90001584B18CB1A4673
:1013B0002346FFF78DF803460C4618462146D7E929
:1013C0000823FFF785F803460C4618462146514B83
:1013D00018CB1A462346FEF7C9FE03460C464D4A73
:1013E00082E818004B4BD3E900014B4B18CB1A464F
:1013F0002346FFF7FDFA0346002B05D0464B18CBDA
:10140000444A82E8180010E0424BD3E90001434B04
:1014100018CB1A462346FFF7CDFA0346002B04D01B
:101420003E4B18CB3B4A82E81800384BD3E9000109
:101430003B4B18CB1A462346FEF796FE03460C4656
:1014400018462146374B18CB1A462346FFF740F87B
:1014500003460C4618462146D7E90823FFF762F9F0
:1014600003460C46304A82E81800304BD3E90001AD
:10147000264B18CB1A462346FFF72AF803460C469C
:1014800018462146234B18CB1A462346FEF76EFE1C
:1014900003460C4618462146234B18CB1A462346D2
:1014A000FEF764FE03460C46214A82E81800204BF2
:1014B000D3E900011F4B18CB1A462346FFF798FAD1
:1014C0000346002B05D01B4B18CB194A82E81800A5
:1014D00010E0174BD3E90001174B18CB1A462346EF
:1014E000FFF768FA0346002B04D0134B18CB104AC1
:1014F00082E81800054B18CB094A82E818000C4B0B
:1015000018CB184621461437BD4690BD3007002041
:10151000280700201007002020070020D806002000
:10152000E006002018070020000700200807002020
:10153000F0060020E8060020F806002080B586B0FE
:1015400002AF0346FB71FB7923F00F03FB73FB79BA
:101550001B01BB73FB7B43F00C03DBB23B72FB7BD9
:1015600043F00803DBB27B72BB7B43F00C03DBB2BE
:10157000BB72BB7B43F00803DBB2FB7207F10802CE
:101580006423009304234E21034801F0F5FE00BFBD
:101590001037BD4680BD00BF6807002080B586B00B
:1015A00002AF0346FB71FB7923F00F03FB73FB795A
:1015B0001B01BB73FB7B43F00D03DBB23B72FB7B78
:1015C00043F00903DBB27B72BB7B43F00D03DBB25C
:1015D000BB72BB7B43F00903DBB2FB7207F108026D
:1015E0006423009304234E21034801F0C5FE00BF8D
:1015F0001037BD4680BD00BF6807002080B500AF32
:101600003320FFF79BFF3220FFF798FF322000F0D6
:1016100059FE2820FFF792FF322000F053FE0120F0
:10162000FFF78CFF322000F04DFE0620FFF786FF0B
:10163000322000F047FE0C20FFF780FF322000F040
:1016400041FE0220FFF77AFF322000F03BFE8020AF
:10165000FFF774FF00BF80BD80B582B000AF786037
:1016600006E07B685A1C7A601B781846FFF796FFE5
:101670007B681B78002BF4D100BF0837BD4680BDC6
:1016800090B589B000AF78603960124B07F10C0457
:101690000FCB84E80F007B68042B01DD00237B6007
:1016A0007B689B0007F12002134453F8143CDAB224
:1016B0003B68DBB21344DBB25BB263F07F035BB227
:1016C000FB77FB7F1846FFF739FF00BF2437BD4685
:1016D00090BD00BFE07E000890B583B000AF284AFF
:1016E0004FF000034FF0000482E8180000237B60F5
:1016F00027E04FF47A71234800F08CFF214801F075
:1017000083F803469AB2204B1A801F4B1B88184659
:10171000FEF768FE4FF000021C4BFFF703F803468C
:101720000C4618462146164B18CB1A462346FEF7A0
:101730001DFD03460C46124A82E818007B680133FF
:101740007B607B68632BD4DD0D4BD3E900014FF048
:1017500000020F4BFEF7E6FF03460C4618462146F3
:101760004FF000020B4BFEF7B3FE03460C46184643
:101770002146FFF75DF9034618460C37BD4690BD7C
:10178000D0070020DC0700205A0800200000594044
:101790000000B04000007940B0B582B000AF424ACE
:1017A0004FF000034FF0000482E8180000237B6034
:1017B00027E04FF47A713D4800F02CFF3B4801F0E0
:1017C00023F803469AB23A4B1A80394B1B881846C5
:1017D000FEF708FE4FF00002364BFEF7A3FF03466C
:1017E0000C4618462146304B18CB1A462346FEF7C6
:1017F000BDFC03460C462C4A82E818007B68013386
:101800007B607B68B3F52F7FD3DB274BD3E90001E7
:101810004FF00002284BFEF785FF03460C461846A2
:1018200021464FF00002254BFEF752FE03460C46C0
:101830001846214618A3D3E90023FEF749FE0346C4
:101840000C4625461C46184BD3E900014FF0000218
:10185000194BFEF767FF02460B464FF00000184990
:10186000FEF782FC02460B4620462946FEF75AFF49
:1018700003460C461846214609A3D3E90023FEF788
:1018800073FC03460C4618462146FFF7D1F8034681
:1018900018460837BD46B0BD1F85EB51B89E0740BE
:1018A00076E09C11A5F55C40D007002038070020A9
:1018B0005A08002000E085400000B04000408F4002
:1018C0000000F03F0000000090B585B004AF244B4D
:1018D0001B68B3F5A07F1DDD224B1B68B3F5A07F0D
:1018E00018DD214A21492248FFF7FAFC18A418CC38
:1018F000CDE902344FF000034FF000048DE81800EA
:101900004FF000021B4B4FF000004FF00001FFF7BB
:101910000FFD17E0144A18491848FFF7E1FC0CA422
:1019200018CCCDE902344FF000034FF000048DE8ED
:10193000180009A3D3E900234FF000004FF0000185
:10194000FFF7F6FC00BF0437BD4690BDAFF3008043
:101950000000000000E06F400000000000A06440B4
:1019600054080020D8070020CDCC4C3ECDCCCC3E36
:101970000000C040004066405C8FC23E0000A040B6
:1019800080B483B000AF0346FB80044B1B68FA8829
:101990005A6300BF0C37BD4680BC70470C0800205E
:1019A000F0B585B004AF00F02BFC00F0E3F800F0D8
:1019B0004FFA00F0ABF900F02DF900F0D5F900F086
:1019C00067F9FFF763FC5C4A5C495D48FFF788FCF8
:1019D00053A418CCCDE902344FF000034FF00004BB
:1019E0008DE8180050A3D3E900234FF000004FF01A
:1019F0000001FFF79DFC4FF47A7000F063FC514842
:101A000001F092F8504801F08FF84E4800F054FD74
:101A10004D4800F051FD00214C4802F0E9FDFFF770
:101A2000EDFDFFF759FE0246494B1A60484B1B6813
:101A30001A464849484803F04DFB00210020FFF7B3
:101A40001FFE4548FFF708FEFFF7A6FE0246434B80
:101A50001A60424B1B681A4641493F4803F03AFB63
:101A600000210120FFF70CFE3B48FFF7F5FD384B46
:101A70001B68C82B24DDFFF727FF354B1B68184672
:101A8000FEF7C0FC05460E46344B1B681846FEF7B1
:101A9000B9FC0A46014626A418CC8DE81800134666
:101AA0000A4628463146FFF76BFC03460C461846AB
:101AB0002146FEF7E5FF03469AB22A4B1A8002E060
:101AC000284B00221A80274B1B881846FFF758FF27
:101AD000244B1B881846FFF7A9F8034622491846ED
:101AE000FFF7B0F9034621491846FFF7F7F8034618
:101AF0001846FEF799FC03460C461A4623461C4935
:101B0000154803F0E7FA0C210120FFF7B9FD124850
:101B1000FFF7A2FD642000F0D5FB82E7AFF3008061
:101B20000000000000E06F400000000000A06440E2
:101B30009A9999999999B93FCDCC4C3E5C8FC23E08
:101B40000000A040DC070020380700200C0800201F
:101B500054080020F07E0008BC070020D8070020B1
:101B6000FC7E00085808002000007F430000C842A7
:101B7000087F000880B594B000AF07F12803282241
:101B80000021184603F09EFA07F1140300221A60A0
:101B90005A609A60DA601A613B1D00221A605A602E
:101BA0009A60DA600223BB620123BB631023FB63EC
:101BB00000237B6407F12803184601F0E3FE034687
:101BC000002B01D000F09CF90F237B610023BB6147
:101BD0000023FB6100233B6200237B6207F11403B7
:101BE0000021184602F04EF90346002B01D000F008
:101BF00087F902237B600023FB603B1D184602F03F
:101C0000DDFA0346002B01D000F07AF900BF50370F
:101C1000BD4680BD80B584B000AF3B1D00221A6078
:101C20005A609A60184B194A1A60174B00229A6042
:101C3000154B01221A73144B00221A75124B4FF4E4
:101C40006022DA61104B00225A600F4B01221A61A8
:101C50000D4800F059FB0346002B01D000F050F96D
:101C600001237B600123BB600023FB603B1D194601
:101C7000054800F0D5FD0346002B01D000F040F9E7
:101C800000BF1037BD4680BDDC07002000240140A6
:101C900080B584B000AF3B1D00221A605A609A6084
:101CA000184B194A1A60174B00229A60154B0122F3
:101CB0001A73144B00221A75124B4FF46022DA612A
:101CC000104B00225A600F4B01221A610D4800F0A0
:101CD0001BFB0346002B01D000F012F902237B60AE
:101CE0000123BB600023FB603B1D1946054800F043
:101CF00097FD0346002B01D000F002F900BF10371A
:101D0000BD4680BD380700200028014080B500AFE7
:101D1000124B134A1A60114B124A5A600F4B0022A1
:101D20009A600E4B0022DA600C4B4FF480421A612D
:101D30000A4B00225A61094B00229A61074B00228C
:101D4000DA61064B00221A62044801F0DDF903460D
:101D5000002B01D000F0D4F800BF80BD6807002040
:101D600000540040A086010080B58EB000AF07F19E
:101D7000280300221A605A609A60DA6007F1200393
:101D800000221A605A603B1D00221A605A609A6055
:101D9000DA601A615A619A612C4B4FF080421A60E6
:101DA0002A4B3F225A60294B00229A60274BFF2280
:101DB000DA60264B00221A61244B00229A612348E4
:101DC00002F06EFB0346002B01D000F099F84FF4AF
:101DD0008053BB6207F1280319461C4802F068FDD6
:101DE0000346002B01D000F08BF8184802F0A7FB47
:101DF0000346002B01D000F083F800233B62002350
:101E00007B6207F120031946104803F0ADF8034642
:101E1000002B01D000F074F860237B600023BB60CE
:101E20000023FB6000237B613B1D0022194607480D
:101E300002F080FC0346002B01D000F061F803485B
:101E400000F054F900BF3837BD4680BD0C080020B3
:101E500080B588B000AF07F1100300221A605A6005
:101E60009A60DA60244A244B9B6943F01003936123
:101E7000214B9B6903F01003FB60FB681E4A1E4B5D
:101E80009B6943F0200393611B4B9B6903F0200384
:101E9000BB60BB68184A184B9B6943F0040393610D
:101EA000154B9B6903F004037B607B68124A124B5D
:101EB0009B6943F0080393610F4B9B6903F0080390
:101EC0003B603B6800224FF400510C4801F004F9DC
:101ED0004FF400533B6101237B610023BB6102236C
:101EE000FB6107F110031946044800F09BFF00BF97
:101EF0002037BD4680BD00BF0010024000100140E9
:101F000080B400AF72B6FEE780B485B000AF154A6A
:101F1000144B9B6943F001039361124B9B6903F0DF
:101F20000103BB60BB680F4A0E4BDB6943F0805373
:101F3000D3610C4BDB6903F080537B607B680A4BF9
:101F40005B68FB60FB6823F0E063FB60FB6843F0C9
:101F50000073FB60044AFB68536000BF1437BD4642
:101F600080BC7047001002400000014080B58AB07C
:101F700000AF786007F1180300221A605A609A6077
:101F8000DA607B681B68284A934222D1274A274B94
:101F90009B6943F400739361244B9B6903F40073C2
:101FA0007B617B69214A214B9B6943F00403936168
:101FB0001E4B9B6903F004033B613B690223BB6139
:101FC0000323FB6107F118031946194800F02AFFA3
:101FD00026E07B681B68174A934221D1134A134BB2
:101FE0009B6943F480639361104B9B6903F48063A6
:101FF000FB60FB680D4A0D4B9B6943F00403936142
:102000000A4B9B6903F00403BB60BB680423BB61FC
:102010000323FB6107F118031946054800F002FF8E
:1020200000BF2837BD4680BD00240140001002409B
:10203000000801400028014080B588B000AF7860FA
:1020400007F1100300221A605A609A60DA607B6818
:102050001B68154A934223D1144A144B9B6943F0E1
:1020600008039361114B9B6903F00803FB60FB6855
:10207000C0233B6112237B610323FB6107F1100343
:1020800019460B4800F0CEFE084A084BDB6943F4C2
:102090000013D361054BDB6903F40013BB60BB681D
:1020A00000BF2037BD4680BD0054004000100240F4
:1020B000000C014080B485B000AF78607B681B687D
:1020C000B3F1804F0BD1084A074BDB6943F00103A2
:1020D000D361054BDB6903F00103FB60FB6800BFC4
:1020E0001437BD4680BC70470010024080B588B0F0
:1020F00000AF786007F1100300221A605A609A60FE
:10210000DA607B681B68B3F1804F17D10D4A0D4B25
:102110009B6943F0040393610A4B9B6903F004033A
:10212000FB60FB6801233B6102237B610223FB61AF
:1021300007F110031946044800F074FE00BF203771
:10214000BD4680BD001002400008014080B400AFD1
:10215000FEE780B400AFFEE780B400AFFEE780B4D6
:1021600000AFFEE780B400AFFEE780B400AF00BF71
:10217000BD4680BC704780B400AF00BFBD4680BC88
:10218000704780B400AF00BFBD4680BC704780B5CB
:1021900000AF00F07BF800BF80BD000080B584B0C8
:1021A00000AF7860114B1B68002B02D10F4B104A17
:1021B0001A600E4B1B68FB600C4B1A687B6813445B
:1021C0006A46934207D902F053FF02460C2313607C
:1021D0004FF0FF3306E0054B1A687B681344034A4F
:1021E0001360FB6818461037BD4680BD9C06002072
:1021F0007008002080B400AF00BFBD4680BC7047AF
:1022000080B500AF084A084B1B6843F01003136009
:10221000032000F0D3FD002000F008F8FFF774FE63
:102220000023184680BD00BF0020024080B582B068
:1022300000AF7860124B1A68124B1B7819464FF4A6
:102240007A73B3FBF1F3B2FBF3F3184600F0DDFD54
:102250000346002B01D001230EE07B680F2B0AD828
:10226000002279684FF0FF3000F0B3FD064A7B682A
:102270001360002300E0012318460837BD4680BDE7
:1022800000000020080000200400002080B400AFFF
:10229000054B1B781A46054B1B681344034A136011
:1022A00000BFBD4680BC7047080000205C080020CD
:1022B00080B400AF024B1B681846BD4680BC704717
:1022C0005C08002080B584B000AF7860FFF7F0FFB5
:1022D000B8607B68FB60FB68B3F1FF3F05D0094B3A
:1022E0001B781A46FB681344FB6000BFFFF7E0FF52
:1022F0000246BB68D21AFB689A42F7D300BF103778
:10230000BD4680BD0800002080B586B000AF786073
:102310000023FB7500233B610023BB600023FB60AF
:102320007B68002B01D10123BEE07B689B68002BFA
:102330007B689B6A002B09D17B680022DA627B688C
:10234000002283F824207868FFF710FE786800F0F8
:10235000B1FB0346FB757B689B6A03F01003002BFF
:1023600040F09980FB7D002B40F095807B689B6A54
:1023700023F4885323F0020343F002027B689A623D
:102380007B685A687B68DB691A437B681B7B5B0050
:102390001343BA681343BB607B689B68B3F5807FC7
:1023A00003D07B689B68012B02D14FF4807300E05F
:1023B00000233A6913433B617B681B7D012B19D1D4
:1023C0007B681B7B002B09D17B689B69013B5A030F
:1023D0003B69134343F400633B610BE07B689B6AFA
:1023E00043F020027B689A627B68DB6A43F001025B
:1023F0007B68DA627B681B687A681268526822F42C
:1024000069413A690A435A607B681A687B681B68AD
:102410009968274B0B40B9680B4393607B689B68B6
:10242000B3F5807F03D07B689B68012B04D17B6868
:102430001B69013B1B05FB607B681B687A6812689F
:10244000D26A22F47001FA680A43DA627B681B6878
:102450009A68184B1340BA6893420BD17B680022EC
:10246000DA627B689B6A23F0030343F001027B6816
:102470009A6218E07B689B6A23F0120343F0100213
:102480007B689A627B68DB6A43F001027B68DA62F0
:102490000123FB7507E07B689B6A43F010027B68B1
:1024A0009A620123FB75FB7D18461837BD4680BD37
:1024B000FDF7E1FFFE0E1FFF80B584B000AF78602E
:1024C0000023FB737B6893F82430012B01D1022396
:1024D00098E07B68012283F82420786800F098FA5D
:1024E0000346FB73FB7B002B40F087807B689B6A75
:1024F00023F4407323F0010343F480727B689A62F3
:102500007B681B68414A934205D1414B5B6803F4E9
:102510007023002B15D17B689B6A23F480127B68A3
:102520009A627B681B685B6803F48063002B26D08B
:102530007B689B6A23F4405343F480527B689A6221
:102540001DE07B689B6A43F480127B689A627B681B
:102550001B682F4A934204D07B681B682B4A934226
:102560000DD12B4B5B6803F48063002B07D07B6895
:102570009B6A23F4405343F480527B689A627B68E1
:102580009B6A03F48053002B06D07B68DB6A23F040
:1025900006027B68DA6202E07B680022DA627B680E
:1025A000002283F824207B681B686FF002021A6007
:1025B0007B681B689B6803F46023B3F5602F13D11D
:1025C0007B681B68114A934205D1114B5B6803F489
:1025D0007023002B08D17B681B687A6812689268A8
:1025E00042F4A0029A600CE07B681B687A6812686B
:1025F000926842F480129A6003E07B68002283F8BC
:102600002420FB7B18461037BD4680BD00280140C2
:102610000024014090B587B000AF78603960002396
:102620007B610023FB6000233B61FFF741FE786183
:102630007B681B689B6803F48073002B0BD07B685E
:102640009B6A43F020027B689A627B68002283F8D1
:1026500024200123C8E07B681B685B6803F4807357
:10266000002B2AD17B681B68DB6A03F47003002B04
:1026700023D11AE03B68B3F1FF3F16D03B68002B33
:1026800007D0FFF715FE02467B69D21A3B689A42D3
:102690000BD97B689B6A43F004027B689A627B6873
:1026A000002283F8242003239EE07B681B681B68BC
:1026B00003F00203002BDDD06CE04D4B1C680220C0
:1026C00001F032FE0346B4FBF3F27B681B68196924
:1026D000484B0B40002B18D17B681B68D968464BD0
:1026E0000B40002B11D17B681B681969434B0B40D1
:1026F000002B08D17B681B68D968414B0B40002B2D
:1027000001D1142320E029231EE07B681B6819698E
:102710003A4B0B40002B06D17B681B68D968384BBD
:102720000B40002B0DD07B681B681969354B0B40A3
:10273000002B08D17B681B68D968324B0B40002BFB
:1027400001D1542300E0FC2303FB02F33B611DE0B5
:102750003B68B3F1FF3F16D03B68002B07D0FFF773
:10276000A7FD02467B69D21A3B689A420BD97B6867
:102770009B6A43F004027B689A627B68002283F8BC
:102780002420032330E0FB680133FB60FA683B69D7
:102790009A42DDD37B681B686FF012021A607B6877
:1027A0009B6A43F400727B689A627B681B689B6833
:1027B00003F46023B3F5602F15D17B681B7B002BDE
:1027C00011D17B689B6A23F480727B689A627B6874
:1027D0009B6A03F48053002B05D17B689B6A43F00E
:1027E00001027B689A62002318461C37BD4690BDE3
:1027F0000000002024499224244992009224491286
:10280000922449004992240080B483B000AF7860DC
:102810007B681B68DB6C18460C37BD4680BC704774
:1028200090B484B000AF786039600023FB7300235C
:10283000BB607B6893F82430012B01D10223DCE0DC
:102840007B68012283F824203B685B68062B1CD838
:102850007B6819687B681B68586B3B685A6813462D
:102860009B001344053B1F2202FA03F3DB4318408D
:102870003B681C683B685A6813469B001344053B41
:1028800004FA03F303434B633CE03B685B680C2BA7
:102890001CD87B6819687B681B68186B3B685A6892
:1028A00013469B001344233B1F2202FA03F3DB432E
:1028B00018403B681C683B685A6813469B001344E9
:1028C000233B04FA03F303430B631BE07B681968A3
:1028D0007B681B68D86A3B685A6813469B001344A0
:1028E000413B1F2202FA03F3DB4318403B681C689C
:1028F0003B685A6813469B001344413B04FA03F3B8
:102900000343CB623B681B68092B1CD97B681968A1
:102910007B681B68D8683B681A6813465B001344E1
:102920001E3B072202FA03F3DB4318403B689C6816
:102930003B681A6813465B0013441E3B04FA03F31A
:102940000343CB6019E07B6819687B681B681869D2
:102950003B681A6813465B001344072202FA03F32C
:10296000DB4318403B689C683B681A6813465B0071
:10297000134404FA03F303430B613B681B68102BF9
:1029800003D03B681B68112B32D17B681B681D4A42
:10299000934225D17B681B689B6803F40003002BDE
:1029A00026D17B681B687A681268926842F400023C
:1029B0009A603B681B68102B1AD1134B1B68134A93
:1029C000A2FB03239A0C13469B0013445B00BB60DD
:1029D00002E0BB68013BBB60BB68002BF9D107E09C
:1029E0007B689B6A43F020027B689A620123FB7339
:1029F0007B68002283F82420FB7B18461037BD46F5
:102A000090BC7047002401400000002083DE1B437F
:102A100080B584B000AF78600023FB600023BB600A
:102A20007B681B689B6803F00103012B39D07B682E
:102A30001B687A681268926842F001029A601B4B28
:102A40001B681B4AA2FB03239B0CBB6002E0BB6814
:102A5000013BBB60BB68002BF9D1FFF729FCF86094
:102A600018E0FFF725FC0246FB68D31A022B11D9A8
:102A70007B689B6A43F010027B689A627B68DB6A22
:102A800043F001027B68DA627B68002283F824202D
:102A9000012307E07B681B689B6803F00103012B9F
:102AA000DFD1002318461037BD4680BD000000204E
:102AB00083DE1B4380B584B000AF78600023FB60E9
:102AC0007B681B689B6803F00103012B27D17B689F
:102AD0001B687A681268926822F001029A60FFF718
:102AE000E7FBF86014E0FFF7E3FB0246FB68D31A4C
:102AF000022B0DD97B689B6A43F010027B689A62B7
:102B00007B68DB6A43F001027B68DA62012307E03D
:102B10007B681B689B6803F00103012BE3D0002353
:102B200018461037BD4680BD90B587B000AF7860BD
:102B30000023FB750023FB607B6893F82430012B96
:102B400001D1022386E07B68012283F82420786883
:102B5000FFF7B0FF0346FB75FB7D002B75D17B684B
:102B60009B6A23F4885323F0020343F002027B683C
:102B70009A623A4B1C68022001F0D6FB0346B4FB74
:102B8000F3F35B00FB6002E0FB68013BFB60FB686A
:102B9000002BF9D17868FFF73BFF7B681B687A68E8
:102BA0001268926842F008029A60FFF781FB386170
:102BB00014E0FFF77DFB02463B69D31A0A2B0DD9BF
:102BC0007B689B6A23F0120343F010027B689A62D1
:102BD0007B68002283F8242001233BE07B681B688C
:102BE0009B6803F00803002BE3D17B681B687A68BD
:102BF0001268926842F004029A60FFF759FB38614C
:102C000014E0FFF755FB02463B69D31A0A2B0DD996
:102C10007B689B6A23F0120343F010027B689A6280
:102C20007B68002283F82420012313E07B681B6863
:102C30009B6803F00403002BE3D17B689B6A23F0BD
:102C4000030343F001027B689A627B68002283F8E9
:102C50002420FB7D18461C37BD4690BD0000002097
:102C600080B485B000AF78607B6803F00703FB6039
:102C70000C4BDB68BB60BA684FF6FF031340BB60C8
:102C8000FB681A02BB68134343F0BF6343F400338D
:102C9000BB60044ABB68D36000BF1437BD4680BC2C
:102CA000704700BF00ED00E080B400AF044BDB686C
:102CB0001B0A03F007031846BD4680BC704700BFDF
:102CC00000ED00E080B483B000AF03463960FB71D3
:102CD00097F90730002B0ADB0D4997F907303A685E
:102CE000D2B21201D2B20B4483F800230AE00949A0
:102CF000FB7903F00F03043B3A68D2B21201D2B25F
:102D00000B441A7600BF0C37BD4680BC704700BF2D
:102D100000E100E000ED00E080B489B000AFF860B1
:102D2000B9607A60FB6803F00703FB61FB69C3F1DC
:102D30000703042B28BF0423BB61FB690433062B64
:102D400002D9FB69033B00E000237B610122BB69E0
:102D500002FA03F35A1EBB681A407B699A400121AC
:102D60007B6901FA03F3591E7B680B401343184635
:102D70002437BD4680BC704780B582B000AF786014
:102D80007B68013BB3F1807F01D301230FE00A4A46
:102D90007B68013B53600F214FF0FF30FFF792FF3C
:102DA000054B00229A60044B07221A600023184644
:102DB0000837BD4680BD00BF10E000E080B582B09E
:102DC00000AF78607868FFF74BFF00BF0837BD465B
:102DD00080BD80B586B000AF0346B9607A60FB73F2
:102DE00000237B61FFF760FF78617A68B9687869D2
:102DF000FFF792FF024697F90F3011461846FFF78A
:102E000061FF00BF1837BD4680BD80B582B000AFFE
:102E100078607868FFF7B0FF034618460837BD466C
:102E200080BD000080B48BB000AF786039600023B3
:102E30007B6200233B6227E101227B6A02FA03F3F3
:102E4000FB613B681A68FB691340BB61BA69FB69A7
:102E50009A4240F016813B685B68122B34D0122BEB
:102E60000DD8022B2BD0022B04D8002B31D0012BF4
:102E70001CD048E0032B43D0112B1BD043E0894AE0
:102E8000934226D0874A934206D8874A934220D05D
:102E9000864A93421DD036E0854A934219D0854A2E
:102EA000934216D0844A934213D02CE03B68DB68EF
:102EB0003B6228E03B68DB6804333B6223E03B680D
:102EC000DB6808333B621EE03B68DB680C333B6227
:102ED00019E03B689B68002B02D104233B6212E09F
:102EE0003B689B68012B05D108233B627B68FA692C
:102EF0001A6108E008233B627B68FA695A6102E0C4
:102F000000233B6200BFBB69FF2B01D87B6801E057
:102F10007B6804337B61BB69FF2B02D87B6A9B0013
:102F200002E07B6A083B9B003B617B691A680F21CA
:102F30003B6901FA03F3DB431A40396A3B6901FA42
:102F400003F31A437B691A603B685B6803F08053A4
:102F5000002B00F09680594A584B9B6943F00103BF
:102F60009361564B9B6903F00103BB60BB68544AF5
:102F70007B6A9B08023352F82330FB607B6A03F0C4
:102F800003039B000F2202FA03F3DB43FA681340AA
:102F9000FB607B684B4A934213D07B684A4A93425A
:102FA0000DD07B68494A934207D07B68484A9342D8
:102FB00001D1032306E0042304E0022302E00123FD
:102FC00000E000237A6A02F0030292009340FA685C
:102FD0001343FB603A497B6A9B080233FA6841F865
:102FE00023203B685B6803F48033002B06D039490B
:102FF000384B1A68BB6913430B6006E03549354B03
:103000001A68BB69DB4313400B603B685B6803F4E1
:103010000033002B06D02F492E4B5A68BB6913434F
:103020004B6006E02B492B4B5A68BB69DB431340CE
:103030004B603B685B6803F48013002B06D0254986
:10304000244B9A68BB6913438B6006E02149214BEE
:103050009A68BB69DB4313408B603B685B6803F491
:103060000013002B06D01B491A4BDA68BB691343C7
:10307000CB6006E01749174BDA68BB69DB431340A6
:10308000CB607B6A01337B623B681A687B6A22FAF9
:1030900003F3002B7FF4D0AE00BF2C37BD4680BCBD
:1030A000704700BF00002110000011100000121036
:1030B0000000311000003210000022100010024009
:1030C0000000014000080140000C014000100140D8
:1030D000001401400004014080B483B000AF786068
:1030E0000B467B8013467B707B78002B03D07A885D
:1030F0007B681A6103E07B881A047B681A6100BF51
:103100000C37BD4680BC704790B585B000AF786085
:103110007B68002B01D101231FE17B6893F83D30D0
:10312000DBB2002B06D17B68002283F83C20786854
:10313000FEF782FF7B68242283F83D207B681B68B2
:103140007A681268126822F001021A607B681B68B4
:103150007A681268126842F400421A607B681B6841
:103160007A681268126822F400421A6000F0E0FFE8
:10317000F8607B685B687B4A934207D8FB687A4AB1
:10318000934294BF01230023DBB206E0FB68774A39
:10319000934294BF01230023DBB2002B01D0012313
:1031A000DBE0FB68724AA2FB03239B0CBB607B68DD
:1031B0001B687A681268526822F03F01BA680A43B5
:1031C0005A607B681A687B681B681B6A23F03F01A2
:1031D0007B685B686348834202D8BB68013309E0BF
:1031E000BB684FF4967000FB03F36248A0FB030337
:1031F0009B0901330B4313627B6818687B681B686B
:10320000DB6923F44F4222F0FF027B685B6855497B
:103210008B420DD8FB68591E7B685B685B00B1FB75
:10322000F3F30133C3F30B03042B38BF04234FE044
:103230007B689B68002B11D1FB685C1E7B6859681A
:103240000B465B000B44B4FBF3F30133C3F30B03F6
:10325000002B0CBF01230023DBB212E0FB685C1ED5
:103260007B6859680B469B000B4499000B44B4FBE8
:10327000F3F30133C3F30B03002B0CBF0123002333
:10328000DBB2002B01D0012322E07B689B68002B7E
:103290000ED1FB685C1E7B6859680B465B000B44D3
:1032A000B4FBF3F30133C3F30B0343F400430FE028
:1032B000FB685C1E7B6859680B469B000B449900B9
:1032C0000B44B4FBF3F30133C3F30B0343F4404368
:1032D0001343C3617B681B687A681268126822F026
:1032E000C0017A68D0697A68126A02430A431A6098
:1032F0007B681A687B681B689B6823F4034323F090
:10330000FF03796808697968C96801430B439360D2
:103310007B681B687A681268D26822F0FF017A68BD
:1033200050697A68926902430A43DA607B681B68D5
:103330007A681268126842F001021A607B68002203
:103340001A647B68202283F83D207B6800221A6380
:103350007B68002283F83E20002318461437BD46C0
:1033600090BD00BFA08601007F841E00FF083D00C5
:1033700083DE1B43D34D621080B588B002AFF86086
:103380007A601A460B467B8113463B81FEF790FF1D
:103390007861FB6893F83D30DBB2202B40F0E08091
:1033A0007B690093192301227049F86800F064F9E1
:1033B0000346002B01D00223D3E0FB6893F83C3096
:1033C000012B01D10223CCE0FB68012283F83C20D1
:1033D000FB681B681B6803F00103012B07D0FB6827
:1033E0001B68FA681268126842F001021A60FB68F2
:1033F0001B68FA681268126822F400621A60FB689F
:10340000212283F83D20FB68102283F83E20FB68D0
:1034100000221A64FB687A685A62FB683A895A8506
:10342000FB685B8D9AB2FB681A85FB68504ADA62CA
:1034300079897B693A6AF86800F09CF80346002BAA
:1034400001D001238DE000233B61FB681B685B69B1
:103450003B61FB681B689B693B613B6966E07A697D
:10346000396AF86800F0DEF90346002B0DD0FB68DE
:103470001B6C042B07D1FB681B68FA681268126882
:1034800042F400721A6001236BE0FB681B68FA6863
:10349000526A12781A61FB685B6A5A1CFB685A62AE
:1034A000FB685B8D9BB2013B9AB2FB685A85FB6857
:1034B0001B8D013B9AB2FB681A85FB681B685B6930
:1034C00003F00403042B1BD1FB681B8D002B17D0CA
:1034D000FB681B68FA68526A12781A61FB685B6ABB
:1034E0005A1CFB685A62FB685B8D9BB2013B9AB227
:1034F000FB685A85FB681B8D013B9AB2FB681A85F5
:103500007A69396AF86800F0CEF90346002B0DD0CD
:10351000FB681B6C042B07D1FB681B68FA681268F8
:10352000126842F400721A6001231AE0FB681B8DD6
:10353000002B94D1FB681B68FA681268126842F489
:1035400000721A60FB68202283F83D20FB6800228D
:1035500083F83E20FB68002283F83C20002300E033
:10356000022318461837BD4680BD00BF0200100078
:103570000000FFFF80B588B002AFF8607A603B6062
:103580000B467B81FB68DB6A7B617B69082B06D07D
:103590007B69012B03D07B6913F5803F08D1FB6861
:1035A0001B68FA681268126842F480721A600BE0B5
:1035B000FB681B6B122B07D1FB681B68FA6812684B
:1035C000126842F480721A603B6800937B680022A4
:1035D0004FF00111F86800F04FF80346002B0DD0B2
:1035E000FB681B681B6803F48073B3F5807F03D10D
:1035F000FB684FF400721A64032334E0FB681B6914
:10360000B3F5804F07D1FB681B687A89D2B202F00C
:10361000FE021A611BE0FB681B687A89D211D2B2E4
:1036200002F00602D2B262F00F02D2B21A613B6817
:103630007A680F49F86800F076F80346002B01D04D
:10364000012310E0FB681B687A89D2B21A613B68DB
:103650007A680849F86800F066F80346002B01D044
:10366000012300E0002318461837BD4680BD00BF87
:10367000080001000200010080B584B000AFF860CE
:10368000B9603B601346FB7125E03B68B3F1FF3F37
:1036900021D0FEF70DFE0246BB69D21A3B689A4262
:1036A00002D83B68002B16D1FB6800221A63FB6826
:1036B000202283F83D20FB68002283F83E20FB682F
:1036C0001B6C43F02002FB681A64FB68002283F83D
:1036D0003C20012323E0BB681B0CDBB2012B0DD186
:1036E000FB681B685B69DA43BB6813409BB2002B25
:1036F0000CBF01230023DBB21A460CE0FB681B68F9
:103700009B69DA43BB6813409BB2002B0CBF0123BB
:103710000023DBB21A46FB799A42B6D00023184642
:103720001037BD4680BD80B584B000AFF860B96089
:103730007A603B6051E0FB681B685B6903F480635F
:10374000B3F5806F23D1FB681B68FA6812681268B2
:1037500042F400721A60FB681B686FF480625A6161
:10376000FB6800221A63FB68202283F83D20FB6877
:10377000002283F83E20FB681B6C43F00402FB68C8
:103780001A64FB68002283F83C20012346E07B6832
:10379000B3F1FF3F21D0FEF78BFD02463B68D21A02
:1037A0007B689A4202D87B68002B16D1FB68002206
:1037B0001A63FB68202283F83D20FB68002283F80F
:1037C0003E20FB681B6C43F02002FB681A64FB6818
:1037D000002283F83C20012320E0BB681B0CDBB2F5
:1037E000012B0CD1FB681B685B69DA43BB68134093
:1037F0009BB2002B14BF01230023DBB20BE0FB685C
:103800001B689B69DA43BB6813409BB2002B14BF53
:1038100001230023DBB2002B8DD100231846103783
:10382000BD4680BD80B584B000AFF860B9607A60F5
:103830002DE0F86800F078F80346002B01D0012352
:103840002DE0BB68B3F1FF3F21D0FEF731FD02460A
:103850007B68D21ABB689A4202D8BB68002B16D18B
:10386000FB6800221A63FB68202283F83D20FB6876
:10387000002283F83E20FB681B6C43F02002FB68AB
:103880001A64FB68002283F83C20012307E0FB68F0
:103890001B685B6903F08003802BCAD100231846A4
:1038A0001037BD4680BD80B584B000AFF860B96008
:1038B0007A602DE0F86800F037F80346002B01D05D
:1038C00001232DE0BB68B3F1FF3F21D0FEF7F0FCF0
:1038D00002467B68D21ABB689A4202D8BB68002BAA
:1038E00016D1FB6800221A63FB68202283F83D2072
:1038F000FB68002283F83E20FB681B6C43F020022B
:10390000FB681A64FB68002283F83C20012307E06F
:10391000FB681B685B6903F00403042BCAD1002316
:1039200018461037BD4680BD80B483B000AF7860C4
:103930007B681B685B6903F48063B3F5806F1BD100
:103940007B681B686FF480625A617B6800221A638F
:103950007B68202283F83D207B68002283F83E208C
:103960007B681B6C43F004027B681A647B6800224E
:1039700083F83C20012300E0002318460C37BD46A5
:1039800080BC704780B586B000AF78607B68002B44
:1039900001D101236CE27B681B6803F00103002B5B
:1039A00000F08780924B5B6803F00C03042B0CD073
:1039B0008F4B5B6803F00C03082B12D18C4B5B68B8
:1039C00003F48033B3F5803F0BD1894B1B6803F4BC
:1039D0000033002B6CD07B685B68002B68D101231F
:1039E00046E27B685B68B3F5803F06D1804A804B36
:1039F0001B6843F4803313602EE07B685B68002B08
:103A00000CD17B4A7A4B1B6823F480331360784ACD
:103A1000774B1B6823F4802313601DE07B685B6891
:103A2000B3F5A02F0CD1724A714B1B6843F480236D
:103A300013606F4A6E4B1B6843F4803313600BE0D6
:103A40006B4A6B4B1B6823F480331360684A684BE6
:103A50001B6823F4802313607B685B68002B13D002
:103A6000FEF726FC386108E0FEF722FC02463B69BF
:103A7000D31A642B01D90323FAE15D4B1B6803F4CD
:103A80000033002BF0D014E0FEF712FC386108E0A0
:103A9000FEF70EFC02463B69D31A642B01D90323BF
:103AA000E6E1534B1B6803F40033002BF0D100E038
:103AB00000BF7B681B6803F00203002B63D04C4BF4
:103AC0005B6803F00C03002B0BD0494B5B6803F0E1
:103AD0000C03082B1CD1464B5B6803F48033002B8E
:103AE00016D1434B1B6803F00203002B05D07B6803
:103AF0001B69012B01D00123BAE13D493C4B1B68F6
:103B000023F0F8027B685B69DB0013430B603AE04B
:103B10007B681B69002B20D0364B01221A60FEF710
:103B2000C7FB386108E0FEF7C3FB02463B69D31AC6
:103B3000022B01D903239BE12D4B1B6803F00203E9
:103B4000002BF0D02A492A4B1B6823F0F8027B682F
:103B50005B69DB0013430B6015E0264B00221A6003
:103B6000FEF7A6FB386108E0FEF7A2FB02463B69C0
:103B7000D31A022B01D903237AE11D4B1B6803F0F2
:103B80000203002BF0D17B681B6803F00803002BB5
:103B90003AD07B689B69002B19D0174B01221A6021
:103BA000FEF786FB386108E0FEF782FB02463B69C0
:103BB000D31A022B01D903235AE10D4B5B6A03F0A0
:103BC0000203002BF0D0012000F0DAFA1CE00A4BCF
:103BD00000221A60FEF76CFB38610FE0FEF768FB0D
:103BE00002463B69D31A022B08D9032340E100BFE8
:103BF0000010024000004242800442429E4B5B6A39
:103C000003F00203002BE9D17B681B6803F0040377
:103C1000002B00F0A6800023FB75974BDB6903F0B7
:103C20008053002B0DD1944A934BDB6943F08053B2
:103C3000D361914BDB6903F08053BB60BB68012308
:103C4000FB758E4B1B6803F48073002B18D18B4AD5
:103C50008A4B1B6843F480731360FEF729FB3861BD
:103C600008E0FEF725FB02463B69D31A642B01D915
:103C70000323FDE0814B1B6803F48073002BF0D01D
:103C80007B68DB68012B06D17B4A7B4B1B6A43F0C8
:103C9000010313622DE07B68DB68002B0CD1764AB0
:103CA000754B1B6A23F001031362734A724B1B6A44
:103CB00023F0040313621CE07B68DB68052B0CD146
:103CC0006D4A6D4B1B6A43F0040313626A4A6A4BE8
:103CD0001B6A43F0010313620BE0674A664B1B6AE1
:103CE00023F001031362644A634B1B6A23F004034D
:103CF00013627B68DB68002B15D0FEF7D9FA3861B8
:103D00000AE0FEF7D5FA02463B69D31A41F288323F
:103D1000934201D90323ABE0574B1B6A03F0020324
:103D2000002BEED014E0FEF7C3FA38610AE0FEF78C
:103D3000BFFA02463B69D31A41F28832934201D955
:103D4000032395E04C4B1B6A03F00203002BEED1DA
:103D5000FB7D012B05D1484A474BDB6923F080539B
:103D6000D3617B68DB69002B00F08180424B5B688C
:103D700003F00C03082B61D07B68DB69022B46D172
:103D80003F4B00221A60FEF793FA386108E0FEF715
:103D90008FFA02463B69D31A022B01D9032367E04D
:103DA000354B1B6803F00073002BF0D17B681B6A56
:103DB000B3F5803F08D130492F4B5B6823F40032C4
:103DC0007B689B6813434B602B482B4B5B6823F449
:103DD00074127B68196A7B685B6A0B431343436008
:103DE000274B01221A60FEF763FA386108E0FEF7FC
:103DF0005FFA02463B69D31A022B01D9032337E04D
:103E00001D4B1B6803F00073002BF0D02FE01C4B00
:103E100000221A60FEF74CFA386108E0FEF748FA13
:103E200002463B69D31A022B01D9032320E0124B2F
:103E30001B6803F00073002BF0D118E07B68DB698E
:103E4000012B01D1012313E00B4B5B68FB60FB6886
:103E500003F480327B681B6A9A4206D1FB6803F444
:103E600070127B685B6A9A4201D0012300E0002354
:103E700018461837BD4680BD001002400070004053
:103E80006000424280B584B000AF786039607B68E2
:103E9000002B01D10123D0E06A4B1B6803F007021D
:103EA0003B689A4210D26749664B1B6823F00702B1
:103EB0003B6813430B60634B1B6803F007023B68CE
:103EC0009A4201D00123B8E07B681B6803F002032B
:103ED000002B20D07B681B6803F00403002B05D067
:103EE000594A594B5B6843F4E06353607B681B6835
:103EF00003F00803002B05D0534A534B5B6843F48F
:103F0000605353605049504B5B6823F0F0027B686C
:103F10009B6813434B607B681B6803F00103002B15
:103F200040D07B685B68012B07D1474B1B6803F4CB
:103F30000033002B15D101237FE07B685B68022BE7
:103F400007D1414B1B6803F00073002B09D10123FB
:103F500073E03D4B1B6803F00203002B01D10123EA
:103F60006BE03949384B5B6823F003027B685B6880
:103F700013434B60FEF79CF9F8600AE0FEF798F9EE
:103F80000246FB68D31A41F28832934201D90323D7
:103F900053E02D4B5B6803F00C027B685B689B0071
:103FA0009A42EBD1274B1B6803F007023B689A4209
:103FB00010D92449234B1B6823F007023B681343A5
:103FC0000B60204B1B6803F007023B689A4201D04C
:103FD000012332E07B681B6803F00403002B08D048
:103FE0001949194B5B6823F4E0627B68DB68134373
:103FF0004B607B681B6803F00803002B09D0124953
:10400000114B5B6823F460527B681B69DB00134330
:104010004B6000F021F801460B4B5B681B0903F075
:104020000F030A4AD35C21FA03F3094A1360094BD0
:104030001B681846FEF7FAF8002318461037BD46ED
:1040400080BD00BF00200240001002403C7F0008FD
:10405000000000200400002090B48AB000AF2A4B7A
:104060003C1D0FCB84E80F00284B1B883B800023AE
:10407000FB610023BB6100237B6200237B61002383
:104080003B62234B5B68FB61FB6903F00C03042B71
:1040900002D0082B03D02DE01E4B3B622DE0FB69C4
:1040A0009B0C03F00F0307F12802134413F8243C80
:1040B0007B61FB6903F48033002B13D0144B5B68E6
:1040C0005B0C03F0010307F12802134413F8283CAA
:1040D000BB617B690F4A02FB03F2BB69B2FBF3F3DE
:1040E0007B6204E07B690C4A02FB03F37B627B6A20
:1040F0003B6202E0074B3B6200BF3B6A1846283731
:10410000BD4690BC704700BF147F0008247F0008A4
:104110000010024000127A0000093D0080B400AF98
:10412000024B1B681846BD4680BC7047000000204B
:1041300080B500AFFFF7F2FF0146054B5B681B0A35
:1041400003F00703034AD35C21FA03F3184680BD4A
:10415000001002404C7F000880B500AFFFF7DEFF83
:104160000146054B5B68DB0A03F00703034AD35C97
:1041700021FA03F3184680BD001002404C7F00086E
:1041800080B485B000AF78600A4B1B680A4AA2FB76
:1041900003235B0A7A6802FB03F3FB6000BFFB6842
:1041A0005A1EFA60002BF9D100BF1437BD4680BCFF
:1041B000704700BF00000020D34D621080B586B06C
:1041C00000AF786000233B610023FB607B681B68C5
:1041D00003F00103002B7DD00023FB754F4BDB69FF
:1041E00003F08053002B0DD14C4A4C4BDB6943F05C
:1041F0008053D361494BDB6903F08053BB60BB68DC
:104200000123FB75464B1B6803F48073002B18D108
:10421000434A434B1B6843F480731360FEF748F82E
:10422000386108E0FEF744F802463B69D31A642B74
:1042300001D903236DE03A4B1B6803F48073002B14
:10424000F0D0364B1B6A03F44073FB60FB68002B15
:104250002ED07B685B6803F44072FB689A4227D0DB
:104260002E4B1B6A23F44073FB602E4B01221A6015
:104270002C4B00221A60294AFB681362FB6803F08A
:104280000103002B14D0FEF713F838610AE0FEF7A3
:104290000FF802463B69D31A41F28832934201D9A2
:1042A000032336E01D4B1B6A03F00203002BEED004
:1042B0001A491A4B1B6A23F440727B685B681343EC
:1042C0000B62FB7D012B05D1144A144BDB6923F0F3
:1042D0008053D3617B681B6803F00203002B08D076
:1042E0000E490E4B5B6823F440427B689B68134386
:1042F0004B607B681B6803F01003002B08D0074954
:10430000064B5B6823F480027B68DB6813434B60D9
:10431000002318461837BD4680BD00BF001002407C
:10432000007000404004424290B58DB000AF78600C
:10433000554B07F10C040FCB84E80F00534B1B883F
:104340003B8100237B620023FB6200233B6200234E
:10435000FB610023BB627B68022B7FD0102B02D055
:10436000012B48D08BE04A4B5B68FB61484B1B68D4
:1043700003F08073002B7FD0FB699B0C03F00F03CD
:1043800007F13002134413F8243C3B62FB6903F449
:104390008033002B18D03E4B5B685B0C03F00103AD
:1043A00007F13002134413F8283C7B62FB6903F4E5
:1043B0008033002B0DD0374A7B6AB2FBF3F33A6AA5
:1043C00002FB03F3FB6204E03B6A334A02FB03F3A4
:1043D000FB622F4B5B6803F48003B3F5800F02D1BF
:1043E000FB6ABB6248E0FB6A5B002C4AA2FB03232A
:1043F0005B08BB6240E0264B1B6AFB61FB6903F470
:104400004073B3F5807F08D1FB6903F00203002BF2
:1044100003D04FF40043BB621FE0FB6903F4407319
:10442000B3F5007F09D11A4B5B6A03F00203002B3E
:1044300003D049F64043BB620FE0FB6903F44073CD
:10444000B3F5407F1AD1124B1B6803F40033002BE5
:1044500014D04FF22443BB6210E00FE0FFF77CFE64
:1044600002460B4B5B689B0B03F0030301335B00BD
:10447000B2FBF3F3BB6202E000BF00E000BFBB6A27
:1044800018463437BD4690BD287F0008387F0008A5
:104490000010024000127A0000093D00ABAAAAAA4F
:1044A00080B582B000AF78607B68002B01D101231A
:1044B00041E07B6893F83D30DBB2002B06D17B688E
:1044C000002283F83C207868FDF7F4FD7B68022227
:1044D00083F83D207B681A687B68043319461046D0
:1044E00000F09EFA7B68012283F846207B68012257
:1044F00083F83E207B68012283F83F207B680122FD
:1045000083F840207B68012283F841207B680122E8
:1045100083F842207B68012283F843207B680122D4
:1045200083F844207B68012283F845207B680122C0
:1045300083F83D20002318460837BD4680BD80B56E
:1045400082B000AF78607B68002B01D1012341E08D
:104550007B6893F83D30DBB2002B06D17B680022EC
:1045600083F83C20786800F039F87B68022283F8F1
:104570003D207B681A687B6804331946104600F0BA
:104580004FFA7B68012283F846207B68012283F87A
:104590003E207B68012283F83F207B68012283F85C
:1045A00040207B68012283F841207B68012283F848
:1045B00042207B68012283F843207B68012283F834
:1045C00044207B68012283F845207B68012283F820
:1045D0003D20002318460837BD4680BD80B483B017
:1045E00000AF786000BF0C37BD4680BC704700004C
:1045F00080B584B000AF786039603B68002B09D18A
:104600007B6893F83E30DBB2012B14BF01230023FB
:10461000DBB222E03B68042B09D17B6893F83F3082
:10462000DBB2012B14BF01230023DBB215E03B6892
:10463000082B09D17B6893F84030DBB2012B14BF03
:1046400001230023DBB208E07B6893F84130DBB242
:10465000012B14BF01230023DBB2002B01D0012367
:104660005EE03B68002B04D17B68022283F83E2089
:1046700013E03B68042B04D17B68022283F83F20BF
:104680000BE03B68082B04D17B68022283F84020B2
:1046900003E07B68022283F841207B681B680122CB
:1046A0003968184600F03CFC7B681B681E4A934240
:1046B00007D17B681B687A681268526C42F400422A
:1046C0005A647B681B68184A93420ED07B681B684B
:1046D000B3F1804F09D07B681B68144A934204D021
:1046E0007B681B68124A934211D17B681B689B68E8
:1046F00003F00703FB60FB68062B10D07B681B6888
:104700007A681268126842F001021A6007E07B685A
:104710001B687A681268126842F001021A6000236E
:1047200018461037BD4680BD002C014000040040F3
:104730000008004080B584B000AFF860B9607A60CE
:10474000FB6893F83C30012B01D10223ACE0FB68FD
:10475000012283F83C207B680C2B00F29F8001A291
:1047600052F823F0994700089D4800089D4800082A
:104770009D480008D94700089D4800089D4800084A
:104780009D4800081B4800089D4800089D480008F7
:104790009D4800085B480008FB681B68B96818461C
:1047A00000F0A0F9FB681B68FA681268926942F091
:1047B00008029A61FB681B68FA681268926922F025
:1047C00004029A61FB681B68FA6812689169BA680A
:1047D00012690A439A6162E0FB681B68B96818466F
:1047E00000F0E6F9FB681B68FA681268926942F407
:1047F00000629A61FB681B68FA681268926922F489
:1048000080629A61FB681B68FA6812689169BA68ED
:10481000126912020A439A6141E0FB681B68B96899
:10482000184600F02FFAFB681B68FA681268D26914
:1048300042F00802DA61FB681B68FA681268D26904
:1048400022F00402DA61FB681B68FA681268D16919
:10485000BA6812690A43DA6121E0FB681B68B9682B
:10486000184600F079FAFB681B68FA681268D2698A
:1048700042F40062DA61FB681B68FA681268D26968
:1048800022F48062DA61FB681B68FA681268D169F9
:10489000BA68126912020A43DA6100E000BFFB68DD
:1048A000002283F83C20002318461037BD4680BD07
:1048B00080B584B000AF786039607B6893F83C3095
:1048C000012B01D10223A6E07B68012283F83C2062
:1048D0007B68022283F83D207B681B689B68FB6035
:1048E000FB6823F07703FB60FB6823F47F43FB60E6
:1048F0007B681B68FA689A603B681B68402B67D02E
:10490000402B0BD8102B73D0102B02D8002B6FD05C
:1049100078E0202B6CD0302B6AD073E0702B0DD058
:10492000702B04D8502B33D0602B41D06AE0B3F504
:10493000805F66D0B3F5005F17D063E07B681868CE
:104940003B6899683B685A683B68DB6800F0C9FAC5
:104950007B681B689B68FB60FB6843F07703FB6028
:104960007B681B68FA689A604CE07B6818683B6853
:1049700099683B685A683B68DB6800F0B2FA7B686C
:104980001B687A681268926842F480429A6039E043
:104990007B6818683B6859683B68DB681A4600F01A
:1049A00029FA7B681B685021184600F080FA29E03C
:1049B0007B6818683B6859683B68DB681A4600F0FA
:1049C00047FA7B681B686021184600F070FA19E00E
:1049D0007B6818683B6859683B68DB681A4600F0DA
:1049E00009FA7B681B684021184600F060FA09E06C
:1049F0007B681A683B681B681946104600F057FA36
:104A000000E000BF7B68012283F83D207B68002224
:104A100083F83C20002318461037BD4680BD0000B7
:104A200080B485B000AF786039607B681B68FB603C
:104A30007B68294A93420BD07B68B3F1804F07D043
:104A40007B68264A934203D07B68254A934208D16B
:104A5000FB6823F07003FB603B685B68FA681343F4
:104A6000FB607B681C4A93420BD07B68B3F1804F9C
:104A700007D07B68194A934203D07B68184A934257
:104A800008D1FB6823F44073FB603B68DB68FA687D
:104A90001343FB60FB6823F080023B685B691343B0
:104AA000FB607B68FA681A603B689A687B68DA6228
:104AB0003B681A687B689A627B68074A934203D115
:104AC0003B681A697B681A637B6801225A6100BFE0
:104AD0001437BD4680BC7047002C014000040040E4
:104AE0000008004080B487B000AF786039607B6810
:104AF0001B6A23F001027B681A627B681B6A7B6178
:104B00007B685B683B617B689B69FB60FB6823F0AB
:104B10007003FB60FB6823F00303FB603B681B68CA
:104B2000FA681343FB607B6923F002037B613B68F7
:104B30009B687A6913437B617B681C4A93420CD162
:104B40007B6923F008037B613B68DB687A69134368
:104B50007B617B6923F004037B617B68134A93428A
:104B600011D13B6923F480733B613B6923F40073EB
:104B70003B613B685B693A6913433B613B689B69F6
:104B80003A6913433B617B683A695A607B68FA680B
:104B90009A613B685A687B685A637B687A691A62D3
:104BA00000BF1C37BD4680BC704700BF002C0140D1
:104BB00080B487B000AF786039607B681B6A23F0EF
:104BC00010027B681A627B681B6A7B617B685B688A
:104BD0003B617B689B69FB60FB6823F4E043FB60FF
:104BE000FB6823F44073FB603B681B681B02FA6898
:104BF0001343FB607B6923F020037B613B689B6868
:104C00001B017A6913437B617B681D4A93420DD176
:104C10007B6923F080037B613B68DB681B017A6959
:104C200013437B617B6923F040037B617B68144AFB
:104C3000934213D13B6923F480633B613B6923F4C6
:104C400000633B613B685B699B003A6913433B61CE
:104C50003B689B699B003A6913433B617B683A69F7
:104C60005A607B68FA689A613B685A687B689A6305
:104C70007B687A691A6200BF1C37BD4680BC7047EA
:104C8000002C014080B487B000AF786039607B6849
:104C90001B6A23F480727B681A627B681B6A7B61E3
:104CA0007B685B683B617B68DB69FB60FB6823F0CA
:104CB0007003FB60FB6823F00303FB603B681B6829
:104CC000FA681343FB607B6923F400737B613B68E4
:104CD0009B681B027A6913437B617B681D4A934280
:104CE0000DD17B6923F400637B613B68DB681B02A9
:104CF0007A6913437B617B6923F480637B617B6802
:104D0000144A934213D13B6923F480533B613B69BE
:104D100023F400533B613B685B691B013A69134311
:104D20003B613B689B691B013A6913433B617B68AC
:104D30003A695A607B68FA68DA613B685A687B684E
:104D4000DA637B687A691A6200BF1C37BD4680BC93
:104D5000704700BF002C014080B487B000AF78607E
:104D600039607B681B6A23F480527B681A627B6817
:104D70001B6A3B617B685B687B617B68DB69FB600E
:104D8000FB6823F4E043FB60FB6823F44073FB60A3
:104D90003B681B681B02FA681343FB603B6923F402
:104DA00000533B613B689B681B033A6913433B61BB
:104DB0007B680F4A934209D17B6923F480437B616E
:104DC0003B685B699B017A6913437B617B687A6905
:104DD0005A607B68FA68DA613B685A687B681A64D3
:104DE0007B683A691A6200BF1C37BD4680BC7047B9
:104DF000002C014080B487B000AFF860B9607A60E1
:104E0000FB681B6A7B61FB681B6A23F00102FB687D
:104E10001A62FB689B693B613B6923F0F0033B61CD
:104E20007B681B013A6913433B617B6923F00A03EA
:104E30007B617A69BB6813437B61FB683A699A615D
:104E4000FB687A691A6200BF1C37BD4680BC704798
:104E500080B487B000AFF860B9607A60FB681B6A05
:104E600023F01002FB681A62FB689B697B61FB6898
:104E70001B6A3B617B6923F470437B617B681B0386
:104E80007A6913437B613B6923F0A0033B61BB68F4
:104E90001B013A6913433B61FB687A699A61FB68BD
:104EA0003A691A6200BF1C37BD4680BC704780B4A7
:104EB00085B000AF786039607B689B68FB60FB68F9
:104EC00023F07003FB603A68FB68134343F0070369
:104ED000FB607B68FA689A6000BF1437BD4680BCEF
:104EE000704780B487B000AFF860B9607A603B600B
:104EF000FB689B687B617B6923F47F437B613B6834
:104F00001A027B681A43BB6813437A6913437B61B7
:104F1000FB687A699A6000BF1C37BD4680BC704749
:104F200080B487B000AFF860B9607A60BB6803F006
:104F30001F03012202FA03F37B61FB681A6A7B6993
:104F4000DB431A40FB681A62FB681A6ABB6803F00D
:104F50001F03796801FA03F31A43FB681A6200BF62
:104F60001C37BD4680BC704780B485B000AF786008
:104F700039607B6893F83C30012B01D1022346E075
:104F80007B68012283F83C207B68022283F83D2065
:104F90007B681B685B68FB607B681B689B68BB6009
:104FA000FB6823F07003FB603B681B68FA681343DF
:104FB000FB607B681B68FA685A607B681B68164A4E
:104FC00093420ED07B681B68B3F1804F09D07B6899
:104FD0001B68124A934204D07B681B68104A9342B4
:104FE0000CD1BB6823F08003BB603B685B68BA6888
:104FF0001343BB607B681B68BA689A607B680122B8
:1050000083F83D207B68002283F83C20002318466B
:105010001437BD4680BC7047002C0140000400409E
:1050200000080040002103E00B4B5B584350043163
:105030000A480B4B42189A42F6D30A4A02E0002370
:1050400042F8043B084B9A42F9D3FDF7D3F800F03D
:1050500015F8FCF7A5FC7047D0810008000000207F
:105060007C0600208006002070080020FEE700007B
:10507000014B1868704700BF0C00002070B5002578
:105080000C4E0D4CA41BA410A54209D102F01AFF2E
:1050900000250A4E0A4CA41BA410A54205D170BDE0
:1050A00056F8253098470135EEE756F825309847F1
:1050B0000135F2E7C8810008C8810008C8810008EE
:1050C000CC81000803460244934200D1704703F8A4
:1050D000011BF9E70EB44FF4027100B59CB0ADF8B6
:1050E00014106FF00041049107914FF6FF711DAB52
:1050F00002900690084853F8042BADF8161000688B
:1051000002A9019300F00AF80022029B1A701CB059
:105110005DF804EB03B070470C0000202DE9F04F60
:10512000BFB0894615461F46824601F029FE036836
:1051300018461193FBF70CF8B9F80C300A901B06CF
:1051400018D5D9F81030ABB94021504601F02EFEE9
:10515000C9F80000C9F8100048B90C23CAF800309B
:105160004FF0FF330B930B983FB0BDE8F08F402317
:10517000C9F8143000232EAC21942393229309956F
:1051800007930D930E93159314930B93129313930C
:10519000099D2B4613F8012B12B1252A40F083807C
:1051A000099BEE1A0DD084E84800239B33442393D7
:1051B000229B0133072B229377DC08340B9B33446B
:1051C0000B932B78002B00F025870023691C1A46CF
:1051D0004FF0FF3B1D460A208DF867300C934E1CA4
:1051E00009780996069106992039582900F2148405
:1051F000DFE811F0A50012041204AA001204120440
:105200001204120412041204AD0065001204B50069
:10521000B8001204D500D800D800D800D800D800B3
:10522000D800D800D800D8001204120412041204C6
:105230001204120412041204120412040C012201BA
:10524000120422011204120412041204EB001204CC
:1052500012043C0312041204120412041204A403E4
:10526000120412048500120412041204120412041F
:1052700012041204120412041204FE006B00220134
:1052800022012201EE006B0012041204F10012044C
:105290001E033E037203F800120483031204A603E4
:1052A00012041204BE031D4673E721AA4946504664
:1052B00002F090FA002840F08E862EAC7EE70123A3
:1052C0002B2209998BE70F46FBE70BB18DF867207E
:1052D000AE0640F1A180073727F0070707F1080362
:1052E0000893D7E90067002E77F1000305DA2D2334
:1052F000764267EB47078DF867300123C7E20BB1B1
:105300008DF86720A04B1593AB0640F13683073725
:1053100027F0070707F108030893D7E90067E807B4
:105320000BD556EA070308D030238DF868309DF876
:10533000183045F002058DF869300223A4E2002AF6
:10534000BFD101232022BCE745F00105B9E73E6843
:10535000391D002E0C96B6DA0F4676420C9645F0B3
:105360000405AEE709994E1C09782A29069110D048
:105370004FF0000B09960699303909293FF633AFF3
:1053800000FB0B1B09990E4616F8011B06910996A6
:10539000F1E73968099641EAE17B043791E745F086
:1053A00080058EE700210C9106990C9E303900FB98
:1053B00006110C9109990E4616F8011B06910699E3
:1053C000099630390929EFD90DE745F0080578E746
:1053D00045F0400575E7099909786C2905D10999C7
:1053E0000131099145F020056BE745F0100568E7AC
:1053F00000263B1D08933B688DF867608DF8903060
:105400004FF0010B37460DF190081CE10BB18DF800
:10541000672045F010055BE715F0100F07F1040356
:1054200003D03E680893F7175DE73E6815F0400F1C
:10543000089318BF36B2F6E70BB18DF8672007372F
:1054400027F0070707F1080308933B684FF0FF3286
:105450000D937B680D9F0E930E9B384623F00046FC
:1054600031464A4BFBF7CEFA002840F0DC854FF07E
:10547000FF32464B38463146FBF7A6FA002840F08B
:10548000D285129A139B0D980E99FBF793FA10B1DF
:105490002D238DF867303E4B3E4A06994FF0030BA3
:1054A0004729CCBF90469846002625F08005374610
:1054B000C9E0BBF1FF3F26D0069B23F02003472B1A
:1054C00004D1BBF1000F08BF4FF0010B45F480730E
:1054D00017930E9B1F1E0D9BA8BF10970F93BDBF68
:1054E0003B4603F1004310930023B8BF2D231693CE
:1054F000069B23F02007462F08D0452F42D10BF101
:105500000106022304E04FF0060BDFE75E460323AB
:105510001FAA04921CAA03921BAA02928DE84800BB
:105520000F9A109B504600F057FE472F804602D13D
:10553000E80740F1858508EB0603462F079311D154
:1055400098F80030302B09D1129A139B0F981099BC
:10555000FBF726FA10B9C6F101061B96079A1B9BAA
:105560001A440792129A139B0F981099FBF718FA96
:1055700090B930221F9B079999420FD9591C1F914E
:105580001A70F7E75E46BCE7647F0008FFFFEF7F15
:10559000547F0008587F0008079B1F931F9B472FCD
:1055A000A3EB0803079340F000811B9BD91C02DB8F
:1055B0009B4580F22681069B023B06931B9A9DF831
:1055C0001810531E002BA8BF2B221B93BCBFC2F187
:1055D00001032D22092B8DF874108DF8752040F3EE
:1055E00000810A260DF1830293FBF6F006FB1033CF
:1055F000092803F1300302F8013C02F1FF310346B0
:1056000000F3E880303301F8013C023A0DF17603F3
:105610000DF1830082421946C0F0DE80079A1DAB6F
:10562000CB1A012A149303EB020B02DC15F00107DD
:1056300002D000270A9B9B44169B13B12D238DF8A3
:1056400067300026179D5E453346B8BF5B460F9313
:105650009DF8673013B10F9B01330F9315F00203D0
:1056600016931EBF0F9B02330F9315F084031793FD
:1056700018D10C9B0F9A9B1A002B109312DD109BD4
:10568000102BAB4B236000F3D981109B109A636001
:10569000239B13442393229B0133072B229300F374
:1056A000E68108349DF8673073B10DF1670323601C
:1056B00001236360239B01332393229B0133072B38
:1056C000229300F3DE810834169B6BB11AAB236082
:1056D00002236360239B02332393229B0133072B16
:1056E000229300F3D8810834179B802B18D10C9B90
:1056F0000F9A9B1A002B109312DD109B102B8D4BD1
:10570000236000F3D281109B109A6360239B1344A3
:105710002393229B0133072B229300F3DF8108346C
:10572000A6EB0B06002E0FDD824B102E236000F33C
:10573000DF81229B239801336660072B0644239662
:10574000229300F3EC810834EB0500F1F281239BF6
:1057500084E800095B442393229B0133072B2293A7
:1057600040F3198421AA4946504602F033F8002834
:1057700040F031842EAC6B0700F110840B9B0C9A27
:105780000F998A42ACBF9B185B180B93239B3BB1CC
:1057900021AA4946504602F01DF8002840F01B841B
:1057A0000023089F22932EACF2E4069B652B7FF723
:1057B00005AF069B662B24D11B9B002B19DDBBF18B
:1057C000000F01D1EA0702D50A9A13445B441B9FDC
:1057D0009B4631E70A4607E712F8011B03F8011B55
:1057E00018E7302213448DF876208DF877301EA903
:1057F00014E7BBF1000F01D1EB0715D50A9B01336C
:10580000E4E71B9A079B9A4206DBEF070ED50A9B3B
:10581000134467220692DAE7079B0A99002A0B4491
:10582000F7DCC2F10102F3E70123D0E71346F0E70A
:105830000BB18DF8672015F0200F07F1040308D095
:105840000B993A68CE1708463146C2E900011F4657
:105850009EE4EE0603D53A680B991160F7E76806F7
:10586000F9D53A68BDF82C101180F0E745F0100525
:1058700015F0200322D0073727F0070707F10803A8
:105880000893D7E90067002300228DF86720BBF159
:10589000FF3F00F0DB8325F080020F9256EA0702FB
:1058A00040F0D983BBF1000F00F0AA80012B76D025
:1058B000022B00F0918000260027D2E33A1D15F05C
:1058C0001001089202D03E680027DDE715F0400382
:1058D000F9D03E880027D6E73B1D08933023782275
:1058E0008DF86830144B3E681593002745F002058B
:1058F0008DF8692002230692C6E700263B1DBBF106
:10590000FF3F0893D7F800808DF867600AD05A46A9
:105910003146404601F056FC002800F08D80A0EB97
:10592000080BC4E54046FAF713FC8346BFE500BF09
:10593000887F0008987F0008757F000845F01005F3
:10594000A90609D5073727F0070707F108030893C9
:10595000D7E90067012397E73B1D15F0100F089367
:1059600001D03E6802E06A06FBD53E880027F1E7D9
:105970000BB18DF86720A34BC5E43B1D15F0100F4C
:10598000089301D03E6802E06E06FBD53E880027F2
:10599000C5E4434666E3002F08BF0A2E05D2303621
:1059A0000DF1F80808F8416D77E30DF1B8083046BD
:1059B00039460A220023FBF7E1FA303208F8012DBC
:1059C0000023304639460A22FBF7D8FA06460F462E
:1059D00056EA0703EBD160E3002600270DF1B80873
:1059E000159A06F00F03D35C3A0908F8013D330914
:1059F00043EA07731E46174656EA0703F0D14CE305
:105A00003BB9EA0705D530230DF1F80808F8413D08
:105A100043E30DF1B80840E30BB18DF86720069B16
:105A2000002B00F0F78200269DF818308DF8676093
:105A30008DF890300897E3E4064638E5102363605C
:105A4000239B10332393229B0133072B229304DCE7
:105A50000834109B103B109311E621AA494650468A
:105A600001F0B8FE002840F0B6822EACF1E721AA82
:105A70004946504601F0AEFE002840F0AC822EAC04
:105A800010E621AA4946504601F0A4FE002840F045
:105A9000A2822EAC18E621AA4946504601F09AFE91
:105AA000002840F098822EAC1EE610236360239BF2
:105AB00010332393229B0133072B229304DC0834F9
:105AC000109B103B109318E621AA4946504601F05E
:105AD00081FE002840F07F822EACF1E721AA4946E2
